:100000000C9463000C948B000C948B000C948B006C
:100010000C948B000C948B000C948B000C948B0034
:100020000C948B000C948B000C948B000C948B0024
:100030000C948B000C948B000C948B000C948B0014
:100040000C94FB030C948B000C946B040C944504EF
:100050000C948B000C948B000C948B000C948B00F4
:100060000C948B000C948B000000000024002700EF
:100070002A0000000000250028002B0000000000DE
:1000800023002600290004040404040404040202DA
:100090000202020203030303030301020408102007
:1000A0004080010204081020010204081020000012
:1000B0000008000201000003040700000000000027
:1000C00000009D04B40611241FBECFEFD8E0DEBFB0
:1000D000CDBF22E0A2ECB1E001C01D92A637B2076D
:1000E000E1F711E0A0E0B1E0E4E4F2E102C0059044
:1000F0000D92A23CB107D9F710E0C2E6D0E004C0EF
:100100002197FE010E941307C136D107C9F70E944B
:1001100011050C9415090C940000833081F028F42B
:10012000813099F08230A1F008958730A9F08830AD
:10013000B9F08430D1F4809180008F7D03C080912C
:1001400080008F7780938000089584B58F7702C0F8
:1001500084B58F7D84BD08958091B0008F7703C0F2
:100160008091B0008F7D8093B0000895CF93DF938E
:10017000282F30E0F901E255FF4F8491F901E6564E
:10018000FF4FD491F901EA57FF4FC491CC2391F06E
:1001900081110E948D00EC2FF0E0EE0FFF1FE4585C
:1001A000FF4FA591B491EC91ED2381E090E021F413
:1001B00080E002C080E090E0DF91CF9108951F932E
:1001C000CF93DF93282F30E0F901E255FF4F849160
:1001D000F901E656FF4FD491F901EA57FF4FC49158
:1001E000CC23C1F0162F81110E948D00EC2FF0E07E
:1001F000EE0FFF1FEE58FF4FA591B4919FB7F894F3
:10020000111104C08C91D095D82302C0EC91DE2B43
:10021000DC939FBFDF91CF911F910895CF93DF9320
:1002200090E0FC01E656FF4F2491FC01EA57FF4F96
:100230008491882361F190E0880F991FFC01E859AF
:10024000FF4FC591D491FC01EE58FF4FA591B49199
:10025000611109C09FB7F894888120958223888313
:10026000EC912E230BC0623061F49FB7F894888123
:10027000322F309583238883EC912E2B2C939FBFB4
:1002800006C08FB7F894E8812E2B28838FBFDF91AB
:10029000CF9108958E3008F08E50877080648093DF
:1002A0007C0080917A00806480937A0080917A004B
:1002B00086FDFCCF809178002091790090E0922B10
:1002C0000895CF92DF92EF92FF920F931F93CF93F7
:1002D000DF936C017A018B01C0E0D0E0CE15DF0521
:1002E00081F0D8016D918D01D601ED91FC910190C5
:1002F000F081E02DC6010995892B11F02196EECFF2
:100300007E01C701DF91CF911F910F91FF90EF9078
:10031000DF90CF900895089580E090E00895FC016B
:10032000538D448D252F30E0842F90E0821B930B5A
:10033000541710F0CF96089501970895FC01918D00
:10034000828D981761F0828DDF01A80FB11D5D9637
:100350008C91928D9F5F9F73928F90E008958FEFA5
:100360009FEF0895FC01918D828D981731F0828D59
:10037000E80FF11D858D90E008958FEF9FEF0895B0
:10038000FC01918D228D892F90E0805C9F4F821B14
:1003900091098F73992708958FEC91E00E94C00115
:1003A00021E0892B09F420E0822F0895FC01848D3F
:1003B000DF01A80FB11DA35ABF4F2C91848D90E08F
:1003C00001968F739927848FA689B7892C93A0896A
:1003D000B1898C91837080648C93938D848D9813F4
:1003E00006C00288F389E02D80818F7D8083089587
:1003F000EF92FF920F931F93CF93DF93EC0181E075
:10040000888F9B8D8C8D981305C0E889F989808130
:1004100085FD26C0F62E0B8D10E00F5F1F4F0F736A
:100420001127E02E8C8DE8120CC00FB607FCFACF16
:10043000E889F989808185FFF5CFCE010E94D60138
:10044000F1CF8B8DFE01E80FF11DE35AFF4FF082D3
:100450009FB7F8940B8FEA89FB89808180620AC07C
:100460009FB7F894EE89FF896083E889F9898081D4
:100470008370806480839FBF81E090E0DF91CF91A3
:100480001F910F91FF90EF900895CF93DF93EC01B0
:10049000888D8823C9F0EA89FB89808185FD05C0A4
:1004A000A889B9898C9186FD0FC00FB607FCF5CFDE
:1004B000808185FFF2CFA889B9898C9185FFEDCF26
:1004C000CE010E94D601E7CFDF91CF91089500972A
:1004D00069F0FC0101900020E9F73197AF01481B5A
:1004E000590BBC018FEC91E00C94610180E090E02D
:1004F0000895CF93DF930E946702EC0188E191E0B9
:100500000E9467028C0F9D1FDF91CF9108958BE1B0
:1005100091E00E94790283E291E00E9479028DE2EB
:1005200091E00E9479028AE391E00E94790288E4D6
:1005300091E00E94790284E591E00E9479028CE5C5
:1005400091E00E94790289E691E00C947902CF93C0
:10055000DF93682F8FEC91E00E94F801EC0188E1B5
:1005600091E00E9467028C0F9D1FDF91CF9108954B
:100570008F929F92AF92BF92CF92DF92EF92FF92B3
:100580000F931F93CF93DF93CDB7DEB7A1970FB62D
:10059000F894DEBF0FBECDBF6C01990FEE08FF08C7
:1005A000F7FE2BC06DE28FEC91E00E94F8018C0108
:1005B00022273327A9012C193D094E095F0919A2E9
:1005C000CE0181967C019AE0892E912CA12CB12C30
:1005D000CA01B901A50194010E94F106605DF7010D
:1005E00062937F01211531054105510589F7CF013E
:1005F0000E946702080F191F1EC0A701960119A2C9
:100600008E010F5D1F4F8AE0C82ED12CE12CF12CFA
:10061000CA01B901A70196010E94F106605DF801C7
:1006200062938F01211531054105510589F7CF01ED
:100630000E9467028C0188E191E00E946702800FAE
:10064000911FA1960FB6F894DEBF0FBECDBFDF910C
:10065000CF911F910F91FF90EF90DF90CF90BF90BF
:10066000AF909F908F900895CF93DF93EC0180918E
:100670006C0290916D02009739F020916E023091DA
:100680006F022C173D07B8F4BE016F5F7F4F0E94C9
:100690003A08009791F090936D0280936C02D0938A
:1006A0006F02C0936E022091700230917102232B71
:1006B00011F4FC01108281E001C080E0DF91CF9154
:1006C0000895EF92FF920F931F93CF93DF9300D083
:1006D000CDB7DEB7F894FF24F3948FEC91E00E943D
:1006E000C001892B09F475C08FEC91E00E949E0136
:1006F000E82E89831A8200917002109171020F5FB7
:100700001F4FC8010E943403882399F020916C0286
:1007100030916D028091700290917102BE016F5F05
:100720007F4F820F931F0E940E0910937102009356
:1007300070028AE0E812D1CFF092C5018091700278
:1007400090917102009731F0E0916C02F0916D028E
:10075000309721F41092C201E2ECF1E02081209365
:10076000C401029730F0E0916C02F0916D02309775
:1007700029F41092C201E2ECF1E001C031968081CF
:100780008093C30180E090E00E94340320916C02CA
:1007900030916D02811113C02115310519F0C90185
:1007A0000E94B10710926D0210926C0210927102B9
:1007B0001092700210926F0210926E028ECF109201
:1007C0007102109270026AE171E0C9010E940E0983
:1007D00084CF78940F900F90DF91CF911F910F915C
:1007E000FF90EF9008950E94CC0181110C94610359
:1007F00008950E9400091F920F920FB60F921124C4
:100800002F933F938F939F93AF93BF938091CB018F
:100810009091CC01A091CD01B091CE013091CA014F
:1008200023E0230F2D3720F40196A11DB11D05C033
:1008300026E8230F0296A11DB11D2093CA018093C3
:10084000CB019093CC01A093CD01B093CE018091C8
:10085000C6019091C701A091C801B091C90101964C
:10086000A11DB11D8093C6019093C701A093C8013B
:10087000B093C901BF91AF919F918F913F912F91FB
:100880000F900FBE0F901F9018951F920F920FB6EA
:100890000F9211242F933F934F935F936F937F9306
:1008A0008F939F93AF93BF93EF93FF938FEC91E060
:1008B0000E94D601FF91EF91BF91AF919F918F91CF
:1008C0007F916F915F914F913F912F910F900FBE4C
:1008D0000F901F9018951F920F920FB60F92112430
:1008E0002F938F939F93EF93FF93E091DF01F0910C
:1008F000E0018081E091E501F091E60182FD12C006
:1009000090818091E8018F5F8F732091E9018217B8
:1009100051F0E091E801F0E0E153FE4F958F8093B4
:10092000E80101C08081FF91EF919F918F912F91FC
:100930000F900FBE0F901F9018951092D201109239
:10094000D10188EE93E0A0E0B0E08093D3019093D2
:10095000D401A093D501B093D6018AE091E09093A1
:10096000D0018093CF0185EC90E09093DC018093DF
:10097000DB0184EC90E09093DE018093DD0180EC5C
:1009800090E09093E0018093DF0181EC90E0909300
:10099000E2018093E10182EC90E09093E401809386
:1009A000E30186EC90E09093E6018093E5011092DC
:1009B000E8011092E9011092EA011092EB01109205
:1009C0006D0210926C0210926F0210926E021092E1
:1009D00071021092700280E090E00E943403209136
:1009E0006C0230916D02811113C02115310519F08F
:1009F000C9010E94B10710926D0210926C02109210
:100A000071021092700210926F0210926E0208959D
:100A100010927102109270026AE171E0C9010C94A7
:100A20000E09789484B5826084BD84B5816084BDEC
:100A300085B5826085BD85B5816085BD80916E007C
:100A4000816080936E0010928100809181008260AD
:100A500080938100809181008160809381008091EA
:100A600080008160809380008091B10084608093D9
:100A7000B1008091B00081608093B00080917A00D5
:100A8000846080937A0080917A00826080937A00FB
:100A900080917A00816080937A0080917A008068EA
:100AA00080937A001092C100E091DF01F091E001A3
:100AB00082E08083E091DB01F091DC011082E09123
:100AC000DD01F091DE018FEC80831092E701E0916F
:100AD000E301F091E40186E08083E091E101F0918F
:100AE000E201808180618083E091E101F091E20187
:100AF000808188608083E091E101F091E201808152
:100B000080688083E091E101F091E20180818F7D36
:100B100080830E94870261E083E00E940E0183E2ED
:100B20008093B00088E08093B10081E08093B300AF
:100B30001092B4001092B20061E085E00E940E01B4
:100B400061E087E00E940E0161E086E00E940E01F4
:100B500061E084E00E940E0161E082E00E940E01EB
:100B600061E089E00E940E0161E08AE00E940E01CE
:100B700061E089E00E940E0160E088E00E940E01C1
:100B800060E08EE00E940E0160E08FE00E940E01A6
:100B900060E080E10E940E01C8E08091C5018823D9
:100BA00009F4B7C08091C4010E94A7028091C301DB
:100BB0000E94A7028091C401803351F48091C30147
:100BC000803331F486E791E00E947902C093B1004E
:100BD0008091C401803359F48091C301813339F489
:100BE0008EE791E00E94790289E08093B1008091C4
:100BF000C401813361F48091C301803341F486E8FC
:100C000091E00E94790260E085E00E94DF0080911F
:100C1000C401813361F48091C301813341F48EE8D2
:100C200091E00E94790261E085E00E94DF008091FE
:100C3000C401823361F48091C301803311F460E018
:100C400004C0813309F089C061E087E017C08333B5
:100C500061F48091C301803311F460E004C08133FA
:100C600009F07BC061E086E009C0843351F48091D3
:100C7000C301803309F066C060E084E00E94DF00B9
:100C80006CC0863309F448C0883309F450C08933F6
:100C900009F45CC08A3008F060C085E00E94B600AC
:100CA0000E94B80287E00E94B6000E94B80286E067
:100CB0000E94B6000E94B80284E00E94B6000E9422
:100CC000B80282E00E94B6000E94B8028EE00E9444
:100CD0004A016C018FE00E944A017C0180E10E9480
:100CE0004A018C0186E991E00E946702C6010E94D8
:100CF000B80283EA91E00E946702C7010E94B8022D
:100D000082EB91E00E946702C8010E94B802109233
:100D1000C5010E94F30341CF8091C301803311F4D8
:100D200060E003C08133C9F461E082E0A7CF809125
:100D3000C301813311F461E003C0803371F460E0DA
:100D400089E09CCF813349F461E097CF8091C30162
:100D5000813331F461E08AE091CF0E9487029DCF18
:100D60008033D9F760E0F7CF80916C0290916D02EB
:100D70000C94B1072F923F924F925F926F927F92A5
:100D80008F929F92AF92BF92CF92DF92EF92FF929B
:100D90000F931F93CF93DF93CDB7DEB7CA1BDB0B47
:100DA0000FB6F894DEBF0FBECDBF09942A883988EC
:100DB00048885F846E847D848C849B84AA84B984F3
:100DC000C884DF80EE80FD800C811B81AA81B981FF
:100DD000CE0FD11D0FB6F894DEBF0FBECDBFED0113
:100DE0000895A1E21A2EAA1BBB1BFD010DC0AA1F6C
:100DF000BB1FEE1FFF1FA217B307E407F50720F084
:100E0000A21BB30BE40BF50B661F771F881F991FFE
:100E10001A9469F760957095809590959B01AC0147
:100E2000BD01CF010895EE0FFF1F0590F491E02D55
:100E300009940F931F93CF93DF938230910510F4A1
:100E400082E090E0E0917402F091750220E030E0E1
:100E5000A0E0B0E0309719F1408151810281138107
:100E600048175907C8F08417950769F4109731F0AF
:100E700012960C93129713961C9327C0009374023A
:100E80001093750222C02115310519F0421753073E
:100E900018F49A01BD01EF01DF01F801DBCF211544
:100EA0003105F9F0281B390B2430310580F48A8193
:100EB0009B816115710521F0FB019383828304C03E
:100EC0009093750280937402FE01329644C0FE0135
:100ED000E20FF31F819391932250310939832883C4
:100EE0003AC02091720230917302232B41F4209179
:100EF000020130910301309373022093720220911A
:100F00000001309101012115310541F42DB73EB7A3
:100F10004091040150910501241B350BE0917202B0
:100F2000F0917302E217F307A0F42E1B3F0B281772
:100F3000390778F0AC014E5F5F4F2417350748F052
:100F40004E0F5F1F509373024093720281939193EF
:100F500002C0E0E0F0E0CF01DF91CF911F910F914F
:100F60000895CF93DF93009709F481C0FC01329775
:100F700013821282A0917402B0917502109781F4CD
:100F800020813181820F931F209172023091730270
:100F90002817390751F5F0937302E093720267C086
:100FA000ED0120E030E0CE17DF0740F44A815B819D
:100FB0009E0141155105F1F0EA01F5CFD383C283BB
:100FC00040815181840F951FC817D90759F4888132
:100FD0009981840F951F0296918380838A819B81DA
:100FE000938382832115310529F4F0937502E093F0
:100FF00074023DC0E901FB83EA8349915991C40F12
:10100000D51FEC17FD0761F480819181840F951F36
:101010000296E90199838883828193819B838A83E5
:10102000E0E0F0E012968D919C911397009719F0F3
:10103000FD01DC01F7CF8D919C9111979D012E5FF1
:101040003F4F820F931F2091720230917302281735
:10105000390769F4309729F41092750210927402DE
:1010600002C013821282B0937302A0937202DF91C6
:10107000CF910895A0E0B0E0E0E4F8E00C94BE0663
:10108000EC01009721F4CB010E941907B4C0FC01C8
:10109000E60FF71F9C0122503109E217F30708F40D
:1010A000A8C0D9010D911C91119706171707B0F030
:1010B0000530110508F49BC0C801049786179707EF
:1010C00008F495C002501109061B170B01931193E8
:1010D0006D937C93CF010E94B10789C05B01A01A78
:1010E000B10A4C01800E911EA0917402B09175025C
:1010F000612C712CE12CF12C109709F446C08D91D4
:101100009C911197A815B905B1F56C0142E0C40E88
:10111000D11CCA14DB0478F14C018A189B086401C5
:1011200042E0C40ED11C1296BC9012971396AC915B
:10113000B5E0CB16D10440F0B282A38391828082C5
:10114000D9016D937C9309C00E5F1F4F800F911FD3
:10115000F90191838083EB2DFA2FE114F10431F032
:10116000D7011396FC93EE93129741C0F09375024A
:10117000E09374023CC06816790608F43C017D01D6
:1011800012960D90BC91A02DB7CF809172029091D4
:10119000730288169906E1F466167706C8F4809102
:1011A000000190910101009741F48DB79EB74091E5
:1011B000040150910501841B950BE817F907C8F449
:1011C000F0937302E0937202F901718360830FC0A0
:1011D000CB010E9419077C01009759F0A801BE01BC
:1011E0000E940509CE010E94B107C70104C0CE01CB
:1011F00002C080E090E0CDB7DEB7EEE00C94DA06F6
:1012000081E090E0F8940C941509FB01DC0102C028
:1012100001900D9241505040D8F70895FB01DC0138
:1012200001900D920020E1F7089510E0C2E6D0E0B1
:1012300004C0FE010E9413072196C336D107C9F7E7
:04124000F894FFCF50
:1012440000007602200000000000F80161018F0117
:101254004502C0019E01B2010D0A00302D47656EA2
:10126400656C00312D5573742046616E00322D413A
:101274006C7420497A6761726100332D6F727461F6
:1012840020497A6761726100342D55737420477266
:10129400696C6C00362D4D6F746F7200382D576178
:1012A4007465722050756D7000392D5761746572C4
:1012B40020486561740070776D206F6666007077F2
:1012C4006D206F6E200066616E206F666600666139
:1012D4006E206F6E20004F76656E2054656D702011
:1012E4003D20005761746572204C6576656C203D25
:1012F400200057617465722054656D7020203D2074
:021304000000E7
:00000001FF
