:100000000C945E000C9486000C9486000C94860080
:100010000C9486000C9486000C9486000C94860048
:100020000C9486000C9486000C9486000C94860038
:100030000C9486000C9486000C9486000C94860028
:100040000C94E6020C9486000C94B4020C948E027C
:100050000C9486000C9486000C9486000C94860008
:100060000C9486000C948600000000080002010039
:100070000003040700000000000000000000000072
:10008000240027002A0001020408102040800102F9
:1000900004081020010204081020000000002500C0
:1000A00028002B00040404040404040402020202D5
:1000B0000202030303030303DE04230711241FBE0C
:1000C000CFEFD8E0DEBFCDBF11E0A0E0B1E0E2E3CA
:1000D000F5E102C005900D92A633B107D9F722E0F1
:1000E000A6E3B1E001C01D92AA33B207E1F710E028
:1000F000CDE5D0E004C02197FE010E945A09CC351D
:10010000D107C9F70E94BF050C948C0A0C9400001B
:10011000AF92BF92CF92DF92EF92FF920F931F9315
:10012000CF93DF936C017B018B01040F151FEB0153
:100130005E01AE18BF08C017D10759F06991D6010A
:10014000ED91FC910190F081E02DC6010995892B7C
:1001500079F7C501DF91CF911F910F91FF90EF903B
:10016000DF90CF90BF90AF900895FC01538D448DE8
:10017000252F30E0842F90E0821B930B541710F052
:10018000CF96089501970895FC01918D828D98175F
:1001900061F0A28DAE0FBF2FB11D5D968C91928D37
:1001A0009F5F9F73928F90E008958FEF9FEF089568
:1001B000FC01918D828D981731F0828DE80FF11D31
:1001C000858D90E008958FEF9FEF0895FC01918D4C
:1001D000228D892F90E0805C9F4F821B91098F7345
:1001E000992708958FE391E00E94E60021E0892B92
:1001F00009F420E0822F089580E090E0892B29F017
:100200000E94F20081110C9400000895FC01A48D5D
:10021000A80FB92FB11DA35ABF4F2C91848D90E028
:1002200001968F739927848FA689B7892C93A0890B
:10023000B1898C91837080648C93938D848D981395
:1002400006C00288F389E02D80818F7D8083089528
:10025000EF92FF920F931F93CF93DF93EC0181E016
:10026000888F9B8D8C8D98131AC0E889F9898081BD
:1002700085FF15C09FB7F894EE89FF896083E889F0
:10028000F98980818370806480839FBF81E090E0E2
:10029000DF91CF911F910F91FF90EF900895F62E6F
:1002A0000B8D10E00F5F1F4F0F731127E02E8C8D09
:1002B0008E110CC00FB607FCFACFE889F98980814E
:1002C00085FFF5CFCE010E940601F1CFEB8DEC0F3B
:1002D000FD2FF11DE35AFF4FF0829FB7F8940B8F6B
:1002E000EA89FB8980818062CFCFCF93DF93EC01D5
:1002F000888D8823B9F0AA89BB89E889F9898C910E
:1003000085FD03C0808186FD0DC00FB607FCF7CFC9
:100310008C9185FFF2CF808185FFEDCFCE010E94C9
:100320000601E9CFDF91CF9108953FB7F89480910E
:100330003B0190913C01A0913D01B0913E0126B559
:10034000A89B05C02F3F19F00196A11DB11D3FBF0D
:10035000BA2FA92F982F8827BC01CD01620F711DDC
:10036000811D911D42E0660F771F881F991F4A95D6
:10037000D1F708950F931F93CF93DF9300D000D050
:1003800000D01F92CDB7DEB78091290287FF66C0EB
:100390000E94950100912D0210912E0220912F02B2
:1003A00030913002601B710B820B930B6C327140E9
:1003B0008105910568F3F89480913502E09133024C
:1003C000F091340240912A0250912B022091310287
:1003D000309132025A83498389010F5F1F4FD9013F
:1003E0009C919F839081982B9E83908180958923F7
:1003F0008D838D818C8388E08B835E816D814F81BD
:100400003B812C8189819A81D801508347FD252F1A
:100410003A952083262F39F0441F00C000006083E6
:10042000000000C0F2CF38E04D91608300000197DA
:1004300061F74F833B832C839A83898378940E944E
:10044000950160932D0270932E0280932F0290935A
:100450003002809129028F778093290227960FB668
:10046000F894DEBF0FBECDBFDF91CF911F910F91EA
:1004700008958F929F92AF92BF92CF92DF92EF92A8
:10048000FF920E9495014B015C0188EBC82E8BE026
:10049000D82EE12CF12C0E949501681979098A095E
:1004A0009B09683E734081059105A8F321E0C21ABB
:1004B000D108E108F10888EE880E83E0981EA11C9F
:1004C000B11CC114D104E104F10429F7FF90EF90AD
:1004D000DF90CF90BF90AF909F908F90089542E0B3
:1004E00050E068E171E08FE391E00C948800CF93D5
:1004F000DF93FC0101900020E9F73197AF01481B21
:10050000590BBC018FE391E00E948800EC010E942E
:100510006F028C0F9D1FDF91CF9108951F920F9254
:100520000FB60F9211242F933F934F935F936F93C6
:100530007F938F939F93AF93BF93EF93FF938FE33B
:1005400091E00E940601FF91EF91BF91AF919F91C1
:100550008F917F916F915F914F913F912F910F906C
:100560000FBE0F901F9018951F920F920FB60F920B
:1005700011242F938F939F93EF93FF93E0914F015B
:10058000F09150018081E0915501F091560182FD7A
:100590001BC09081809158018F5F8F73209159010A
:1005A000821741F0E0915801F0E0E15CFE4F958F39
:1005B00080935801FF91EF919F918F912F910F9010
:1005C0000FBE0F901F9018958081F4CF1F920F924D
:1005D0000FB60F9211242F933F938F939F93AF9356
:1005E000BF938091370190913801A0913901B0916A
:1005F0003A013091360123E0230F2D3758F501964B
:10060000A11DB11D209336018093370190933801CD
:10061000A0933901B0933A0180913B0190913C0144
:10062000A0913D01B0913E010196A11DB11D8093A5
:100630003B0190933C01A0933D01B0933E01BF91DB
:10064000AF919F918F913F912F910F900FBE0F907F
:100650001F90189526E8230F0296A11DB11DD2CF39
:100660002F923F924F925F926F927F928F929F92C2
:10067000AF92BF92CF92DF92EF92FF920F931F93B0
:10068000CF93DF93CDB7DEB72F970FB6F894DEBFC9
:100690000FBECDBF9C878B877E876D87FB016081F6
:1006A00070E090E080E00E94380820E030E04FE702
:1006B00053E40E94C4076B837C838D839E83ED8506
:1006C000FE85618170E090E080E00E94380820E0C3
:1006D00030E04FE753E40E94C407362E272E89836B
:1006E0009A83ED85FE85628170E090E080E00E9453
:1006F000380820E030E04FE753E40E94C407162F8B
:100700007F878D87092F232D322D49815A816B8157
:100710007C818D819E810E94E80818166CF4212F3F
:100720003F854D85502F6B817C818D819E810E94FC
:10073000E80818160CF4F0C0212F3F854D85502F86
:10074000632D722D89819A810E94E80818160CF495
:10075000ECC01F83FF85F8878D8589870A87232D45
:10076000322D49815A816B817C818D819E810E94CD
:10077000BF0787FF0CC0212F3F854D85502F6B8110
:100780007C818D819E810E94BF0787FDD5C0212F6E
:100790003F854D85502F632D722D89819A810E944E
:1007A000BF0787FDCEC0D12EEF84FD84C02E2D2D36
:1007B0003E2D4F2D5C2D6F81788589859A850E940D
:1007C00053074B015C0120E030E040E05FE30E9412
:1007D000ED082B013C012D2D3E2D4F2D5C2D6F8101
:1007E000788589859A850E94BF07882309F4E0C02F
:1007F0002D2D3E2D4F2D5C2D6F81788589859A8515
:100800000E9452076B017C0120E030E040E05FE392
:10081000C301B2010E94E808A5019401181644F42E
:1008200060E070E080E090E40E9452079B01AC0120
:10083000C701B6010E94C4074B015C01232D322D74
:1008400049815A816B817C818D819E810E94E8085B
:1008500018160CF07BC0212F3F854D85502F6B81E2
:100860007C818D819E810E94E80818160CF06EC074
:10087000212F3F854D85502F632D722D89819A81BF
:100880000E945207A70196010E94C4076B017C01D8
:10089000212F3F854D85502F632D722D89819A819F
:1008A0000E94BF0720E030E0A90187FF04C020E0DC
:1008B00030E040EC50E4C701B6010E94530720E04D
:1008C00030E040EC50E40E94C407EB85FC85608377
:1008D00071838283938384829582A682B7824086C5
:1008E0005186628673862F960FB6F894DEBF0FBED0
:1008F000CDBFDF91CF911F910F91FF90EF90DF90CF
:10090000CF90BF90AF909F908F907F906F905F90AF
:100910004F903F902F900895EB81EF83FC81F887F3
:100920008D818987EE81EA871ACF3F822886F981F7
:10093000F9878A818A8713CFDB80EC80FD80CE80A7
:1009400036CFD32CE22CF980CA8031CF212F3F85BE
:100950004D85502F632D722D89819A810E94E80860
:1009600018169CF42B813C814D815E81612F7F851F
:100970008D85902F0E945207A70196010E94C407FF
:1009800020E030E040E050E498CF232D322D498123
:100990005A816B817C818D819E810E945207A701C3
:1009A00096010E94C40720E030E040E850E485CF83
:1009B000812C912C5401C501B40187CFEF92FF9295
:1009C0000F931F93CF93DF93109242011092410136
:1009D00088EE93E0A0E0B0E080934301909344015F
:1009E000A0934501B09346018AE091E090934001C5
:1009F00080933F0185EC90E090934C0180934B01F4
:100A000084EC90E090934E0180934D0180EC90E057
:100A10009093500180934F0181EC90E090935201AC
:100A20008093510182EC90E09093540180935301A4
:100A300086EC90E0909356018093550110925801F6
:100A40001092590110925A0110925B0182E090E0DD
:100A500090932802809327021092290286E090E06A
:100A600090932B0280932A0282E080932C021092B2
:100A70003402109233021092350208E810E0F801B7
:100A80002491C6EAD0E0FE018491882399F090E099
:100A9000880F991FFC01E458FF4FA591B491FC0108
:100AA000E656FF4F859194918FB7F8949C91292B2E
:100AB0002C938FBFE0902A02F0902B02C7010E9476
:100AC00060099093320280933102A70170E060E0E8
:100AD0000E94850AFE01C491EC2FF0E0EE0FFF1F8B
:100AE000E656FF4F859194919093340280933302A0
:100AF000F80104910093350280E88093240210925B
:100B00002502109226021092210280932202109256
:100B1000230210921E0210921F02809320028093E3
:100B20001B0280931C0280931D02109218021092E7
:100B3000190210921A0264E272E08CE092E00E94C4
:100B4000300361E272E080E092E00E9430036EE1E7
:100B500072E084EF91E00E9430036BE172E088EE76
:100B600091E00E94300368E172E08CED91E0DF914A
:100B7000CF911F910F91FF90EF900C9430037894D8
:100B800084B5826084BD84B5816084BD85B5826092
:100B900085BD85B5816085BD80916E008160809343
:100BA0006E001092810080918100826080938100AC
:100BB00080918100816080938100809180008160BC
:100BC000809380008091B10084608093B100809117
:100BD000B00081608093B00080917A00846080933F
:100BE0007A0080917A00826080937A0080917A0006
:100BF000816080937A0080917A00806880937A0087
:100C00001092C100E0914F01F091500182E0808389
:100C1000E0914B01F0914C011082E0914D01F09177
:100C20004E0180E1808310925701E0915301F091D1
:100C3000540186E08083E0915101F091520180815E
:100C400080618083E0915101F09152018081886040
:100C50008083E0915101F09152018081806880830E
:100C6000E0915101F091520180818F7D80830E943B
:100C70006F028BE191E00E9477028FE391E00E9486
:100C8000750180912C0290E0FC01E859FF4F2491FE
:100C9000FC01EA57FF4F3491FC01EC55FF4FE49102
:100CA000EE23D9F0222359F0233009F4B5C008F01F
:100CB000A8C0213009F4B6C0223009F4B7C0F0E072
:100CC000EE0FFF1FE656FF4FA591B4918FB7F89432
:100CD000EC9130953E233C938FBF0E949501609329
:100CE0002D0270932E0280932F02909330028091F8
:100CF00029028068809329020E94BA010E946F0233
:100D00008BE291E00E947702C0E0D0E08091270260
:100D100090912802892B91F0909124022091250234
:100D200080912602E0913102F0913202208391837A
:100D30008283809129028068809329020E94BA01EF
:100D40000E9439028091270290912802892B91F00C
:100D5000909121022091220280912302E0913102A0
:100D6000F0913202208391838283809129028068EE
:100D7000809329020E94BA010E94390280912702C1
:100D800090912802892B91F090911E0220911F02D0
:100D900080912002E0913102F09132022083918310
:100DA0008283809129028068809329020E94BA017F
:100DB0000E9439028091270290912802892B91F09C
:100DC000909118022091190280911A02E09131024B
:100DD000F09132022083918382838091290280687E
:100DE000809329020E94BA010E943902209709F4D7
:100DF0008DCF0E94F200882309F488CF0E94000062
:100E000085CF2730B1F02830D1F0243009F057CF0A
:100E1000809180008F7D03C0809180008F778093C8
:100E200080004DCF84B58F7784BD49CF84B58F7D49
:100E3000FBCF8091B0008F778093B00040CF80913E
:100E4000B0008F7DF9CFCF93DF9380912C0290E09B
:100E5000FC01EA57FF4F24918C559F4FFC01849170
:100E60008823C1F090E0880F991FFC01E458FF4FE0
:100E7000C591D491FC01E656FF4FA591B4919FB75F
:100E8000F8948881E22FE0958E2388838C91E82363
:100E9000EC939FBF8091310290913202DF91CF910C
:100EA0000C94FC095058BB27AA270E946A070C948F
:100EB000AE080E94A00838F00E94A70820F039F47C
:100EC0009F3F19F426F40C949D080EF4E095E7FB7F
:100ED0000C949708E92F0E94BF0858F3BA176207CD
:100EE00073078407950720F079F4A6F50C94E108C0
:100EF0000EF4E0950B2EBA2FA02D0B01B901900135
:100F00000C01CA01A0011124FF27591B99F0593F78
:100F100050F4503E68F11A16F040A22F232F342FC0
:100F20004427585FF3CF469537952795A795F0400E
:100F30005395C9F77EF41F16BA0B620B730B840B23
:100F4000BAF09150A1F0FF0FBB1F661F771F881FDB
:100F5000C2F70EC0BA0F621F731F841F48F4879533
:100F600077956795B795F7959E3F08F0B0CF939525
:100F7000880F08F09927EE0F9795879508950E949E
:100F8000730808F481E008950E94D8070C94AE0815
:100F90000E94A70858F00E94A00840F029F45F3F83
:100FA00029F00C94970851110C94E2080C949D08B8
:100FB0000E94BF0868F39923B1F3552391F3951B61
:100FC000550BBB27AA2762177307840738F09F5F6A
:100FD0005F4F220F331F441FAA1FA9F335D00E2ED7
:100FE0003AF0E0E832D091505040E695001CCAF744
:100FF0002BD0FE2F29D0660F771F881FBB1F261707
:1010000037074807AB07B0E809F0BB0B802DBF01DD
:10101000FF2793585F4F3AF09E3F510578F00C94AC
:1010200097080C94E2085F3FE4F3983ED4F386956A
:1010300077956795B795F7959F5FC9F7880F911DCD
:101040009695879597F90895E1E0660F771F881FB9
:10105000BB1F621773078407BA0720F0621B730B6C
:10106000840BBA0BEE1F88F7E0950895E89409C049
:1010700097FB3EF490958095709561957F4F8F4FCB
:101080009F4F9923A9F0F92F96E9BB279395F695E1
:10109000879577956795B795F111F8CFFAF4BB0F5F
:1010A00011F460FF1BC06F5F7F4F8F4F9F4F16C0C3
:1010B000882311F096E911C0772321F09EE8872F4D
:1010C000762F05C0662371F096E8862F70E060E009
:1010D0002AF09A95660F771F881FDAF7880F969582
:1010E000879597F90895990F0008550FAA0BE0E826
:1010F000FEEF16161706E807F907C0F012161306DA
:10110000E407F50798F0621B730B840B950B39F419
:101110000A2661F0232B242B252B21F408950A267F
:1011200009F4A140A6958FEF811D811D089597F9BF
:101130009F6780E870E060E008959FEF80EC08957D
:1011400000240A94161617061806090608950024A6
:101150000A9412161306140605060895092E039420
:10116000000C11F4882352F0BB0F40F4BF2B11F494
:1011700060FF04C06F5F7F4F8F4F9F4F089557FDF3
:101180009058440F551F59F05F3F71F04795880FF5
:1011900097FB991F61F09F3F79F08795089512168C
:1011A00013061406551FF2CF4695F1DF08C0161638
:1011B00017061806991FF1CF8695710561050894E9
:1011C0000895E894BB2766277727CB0197F9089500
:1011D0000E94730808F48FEF08950E9400090C9490
:1011E000AE080E94A00838F00E94A70820F09523BE
:1011F00011F00C9497080C949D0811240C94E208AB
:101200000E94BF0870F3959FC1F3950F50E0551FE2
:10121000629FF001729FBB27F00DB11D639FAA274B
:10122000F00DB11DAA1F649F6627B00DA11D661F9A
:10123000829F2227B00DA11D621F739FB00DA11DBB
:10124000621F839FA00D611D221F749F3327A00D75
:10125000611D231F849F600D211D822F762F6A2F11
:1012600011249F5750409AF0F1F088234AF0EE0F76
:10127000FF1FBB1F661F771F881F91505040A9F7A3
:101280009E3F510580F00C9497080C94E2085F3F54
:10129000E4F3983ED4F3869577956795B795F795DF
:1012A000E7959F5FC1F7FE2B880F911D9695879557
:1012B00097F90895EE0FFF1F0590F491E02D099422
:1012C0000F931F93CF93DF938230910510F482E048
:1012D00090E0E0913802F091390230E020E0B0E097
:1012E000A0E0309799F42115310509F44AC0281B74
:1012F000390B24303105D8F58A819B816115710540
:1013000089F1FB0193838283FE0111C040815181E9
:101310000281138148175907E0F04817590799F4DB
:10132000109761F012960C93129713961C933296B5
:10133000CF01DF91CF911F910F9108950093380253
:1013400010933902F4CF2115310551F0421753079C
:1013500038F0A901DB019A01BD01DF01F801C1CF1D
:10136000EF01F9CF9093390280933802CDCFFE017F
:10137000E20FF31F8193919322503109398328831F
:10138000D7CF2091360230913702232B41F42091A0
:1013900002013091030130933702209336022091ED
:1013A0000001309101012115310541F42DB73EB7FF
:1013B0004091040150910501241B350BE091360248
:1013C000F0913702E217F307A0F42E1B3F0B28170A
:1013D000390778F0AC014E5F5F4F2417350748F0AE
:1013E0004E0F5F1F509337024093360281939193C3
:1013F0009FCFF0E0E0E09CCFCF93DF930097E9F040
:10140000FC01329713821282A0913802B091390206
:10141000ED0130E020E01097A1F420813181820FAE
:10142000931F20913602309137022817390709F0AF
:1014300061C0F0933702E0933602DF91CF910895B7
:10144000EA01CE17DF07E8F54A815B819E0141156D
:101450005105B1F7E901FB83EA8349915991C40F22
:10146000D51FEC17FD0761F4808191810296840FEE
:10147000951FE90199838883828193819B838A8365
:10148000F0E0E0E012968D919C9113970097B9F5EA
:101490002D913C911197CD010296820F931F2091BF
:1014A0003602309137022817390739F6309751F54F
:1014B0001092390210923802B0933702A09336028C
:1014C000BCCFD383C28340815181840F951FC8173D
:1014D000D90761F44E5F5F4F88819981480F591F8A
:1014E000518340838A819B819383828321153105B7
:1014F00009F0B0CFF0933902E09338029ECFFD019E
:10150000DC01C0CF13821282D7CFDC0101C06D9302
:1015100041505040E0F7089510E0CDE5D0E004C020
:10152000FE010E945A092196CE35D107C9F7F894D9
:02153000FFCFEB
:1015320000003A0280000000000028018800B50087
:101542007501E600C400D8000D0A00496E6974698D
:10155200616C697A696E672E2E2E0052756E6E6905
:061562006E672E2E2E0024
:00000001FF
